:020000040800F2
:10000000402A00244D03000803360008F13400089C
:1000100001360008050A00088951000800000000A8
:10002000000000000000000000000000AF490008D0
:10003000070A00080000000005360008B149000862
:1000400067030008670300086703000867030008E8
:1000500067030008670300086703000867030008D8
:1000600067030008670300086703000867030008C8
:1000700067030008670300086703000867030008B8
:1000800067030008670300086703000867030008A8
:100090006703000867030008670300086703000898
:1000A0006703000867030008670300086703000888
:1000B0006703000867030008670300086703000878
:1000C0006703000867030008670300086703000868
:1000D0006703000867030008670300086703000858
:1000E00067030008670300080000000067030008BA
:1000F0006703000867030008670300086703000838
:100100006703000867030008670300086703000827
:100110006703000867030008670300086703000817
:100120006703000867030008670300086703000807
:1001300067030008670300086703000867030008F7
:1001400000000000000000000000000000000000AF
:1001500067030008670300086703000867030008D7
:1001600067030008670300086703000867030008C7
:100170006703000867030008670300080000000029
:1001800067030008670300086703000867030008A7
:100190006703000867030008670300086703000897
:1001A0006703000867030008670300086703000887
:1001B0006703000867030008670300086703000877
:1001C0006703000867030008670300086703000867
:1001D0006703000867030008670300086703000857
:1001E0006703000867030008670300086703000847
:1001F0006703000867030008670300086703000837
:100200006703000867030008670300086703000826
:100210006703000867030008670300086703000816
:100220006703000867030008670300080000000078
:100230006703000867030008000000006703000868
:1002400067030008670300086703000867030008E6
:1002500067030008670300086703000867030008D6
:1002600067030008670300086703000867030008C6
:100270006703000867030008670300080000000028
:100280006703000867030008670300080000000018
:10029000000000006703000800F002F800F047F8D3
:1002A0000AA090E8000C82448344AAF10107DA45D1
:1002B00001D100F03CF8AFF2090EBAE80F0013F0DC
:1002C000010F18BFFB1A43F001031847A873000081
:1002D000C8730000103A24BF78C878C1FAD8520712
:1002E00024BF30C830C144BF04680C6070470000B0
:1002F0000023002400250026103A28BF78C1FBD82F
:10030000520728BF30C148BF0B607047692900F011
:10031000F380752900F0F080732900F0E28200205C
:1003200070471FB506F023FF1FBD10B510BD00F0CC
:10033000DCFA1146FFF7F5FF06F0D6FC00F0FAFAFA
:1003400003B4FFF7F2FF03BC00F002FB094880474B
:1003500009480047FEE7FEE7FEE7FEE7FEE7FEE7A7
:10036000FEE7FEE7FEE7FEE704480549054A064BBF
:1003700070470000614A00089902000840240024E8
:10038000402A0024402600244026002453EA020C80
:1003900000F069802DE9F04B4FF00006002B1FBFE5
:1003A000B3FA83F503FA05F424FA05F65E4012BFAA
:1003B0001643B2FA82F502FA05F4C5F120051EBF14
:1003C00022FA05FC44EA0C04203556EA044C4FEAB4
:1003D000144418BF641C4FF000084FF0000990420D
:1003E00071EB030C39D3002919BFB1FA81F701FA77
:1003F00007F6B0FA80F700FA07F6C7F120071EBF2C
:1004000020FA07FC46EA0C062037B6FBF4FCA7EB03
:100410000507103F07F01F0BCBF120060CFA0BFB72
:100420002CFA06F644BFB3460026202FA4BF5E4632
:100430004FF0000B5BEA060C08BF4FF0010B19EB05
:100440000B09ABFB027C48EB0608C01B06FB02CC89
:100450000BFB03CC71EB0C01C1E70B460246414696
:100460004846BDE8F08B13B54FF000004FF0000197
:10047000AFF30080BDE81C40704700000FB41CB50E
:10048000074B06AA7B4469460090059800F0FFF9E7
:100490000020694600F00EFA1CBC5DF814FB000059
:1004A0002D04000070B50C460546012A05D02878B9
:1004B000800600D5EA69002302E0012305E05B1C09
:1004C000934202D2E05C0028F9D1A869E618C01A6C
:1004D000A861286A184428622846AFF3008004E027
:1004E000D5E9012114F8010B9047B442F8D328460E
:1004F000AFF3008070BD00002DE9F04106460024F6
:1005000010687529314616A510D0AFF30080002879
:1005100002DA404213A507E031688A0701D512A527
:1005200002E0490704D511A5012401E0AFF30080E2
:1005300000210A2206F1240709E0B0FBF2FCB0FB1F
:10054000F2F302FB1C00303078541846491C002896
:10055000F3D123462A463046BDE8F04100F039B9D0
:10056000000000002D0000002B0000002000000013
:100570002DE9F05F894604464FF0000ADFF874B1B8
:10058000FB44C0F820A02046E1688847002874D0CA
:10059000252806D0D4E901219047206A401C20621A
:1005A000F1E700265F462046E16888472028054697
:1005B00007DB312D05D2781910F8200C08B106435D
:1005C000F1E7B00701D526F00406C4F81CA0002707
:1005D000C4F818A02A2D09D0284604F0E7FD38B346
:1005E00004EB8708303DC8F8185019E059F8041B8F
:1005F000204604EB87029161E1688847012F054698
:1006000018D1E069002820DA26F020061DE0D8F88D
:10061000180000EB800005EB40003038C8F81800E7
:100620002046E1688847054604F0C0FD0028EED169
:10063000012F0AD02E2D08D12046E16888477F1C63
:100640000546022F46F02006C4DBA069002803DA25
:10065000404246F00106A061F00701D026F01006E6
:100660006C2D0BD0682D09D04C2D39D06A2D35D08A
:10067000742D35D07A2D33D016E038E0E1682F465E
:1006800020468847B842054609D16C2F26D04FF442
:100690008060E168064320468847054604E06C2FE9
:1006A0001AD04FF4807006430DB3A5F1410019280C
:1006B00002D8203546F400664A4629462046266080
:1006C0004E46FFF723FE80B101280BD0F61D26F021
:1006D000070000F1080956E74020E4E78020D8E74A
:1006E0000020D6E706F104094DE7284652E7206AC4
:1006F000BDE8F09F9870000040EA0103024630B563
:100700009B0710D14FF0013400E008C208C91D1B3F
:100710009D4315EAC41FF8D013F0FF0102F8011B36
:100720000DD01B0AF8E711F8013B002B02F8013B42
:1007300005D011F8013B002B02F8013BF3D130BD8D
:1007400010B5431C02E010F8011B71B18107FAD10A
:100750004FF0013202C88C1A8C4314EAC211F9D04E
:10076000C01A0A0603D0C01E10BDC01A10BD0A046C
:1007700001D0801E10BD0902FCD0401E10BD4FF0FC
:10078000000200B5134694469646203922BFA0E8E1
:100790000C50A0E80C50B1F12001BFF4F7AF0907ED
:1007A00028BFA0E80C5048BF0CC05DF804EB8900DE
:1007B00028BF40F8042B08BF704748BF20F8022B21
:1007C00011F0804F18BF00F8012B70477047704739
:1007D00070472DE9F0470D4699469246044600F1D0
:1007E00024080168880604D5E06921F01001216021
:1007F00000E00120A84201DD471B00E00027A169BD
:100800007A1902EB0900081AA0612078C00602D408
:100810002046AFF30080002608E0D4E901211AF851
:1008200006009047206A401C761C20624E45F4DB8F
:100830002078C0060AD52046AFF3008006E0D4E950
:10084000012130209047206A401C2062381EA7F109
:100850000107F4DC07E0D4E9012118F8050090470E
:10086000206A401C2062281EA5F10105F3DC204609
:10087000AFF300802078000602D50220BDE8F087A3
:100880000120FBE701694A1C02610878704700B546
:100890008FB0CDE901310021059105497944CDE9B9
:1008A000031011466846FFF763FE0FB000BD00005D
:1008B000E5FFFFFF0A6802F8010B0A60704710B5F8
:1008C000436913B1AFF3008001E0FFF7EBFD0120B6
:1008D00010BD127800F124010A7000224A70012232
:1008E000EDE711684FF0FF32E9E7754600F02CF8AC
:1008F000AE4605006946534620F00700854618B00D
:1009000020B5FFF731FDBDE820404FF000064FF065
:1009100000074FF000084FF0000B21F00701AC4634
:10092000ACE8C009ACE8C009ACE8C009ACE8C00953
:100930008D46704710B50446AFF300802046BDE8F1
:100940001040FFF7FDBC000000487047DC23002486
:1009500001491820ABBEFEE72600020070470000E8
:100960000146014802F018B940000024044810B5BF
:1009700002F024F9042801D0012010BD002010BD90
:100980004000002410B500F015F8012801D0022025
:1009900010BD074802F08EF9040006D104484FF458
:1009A000804101F057FF00B10124204610BD000036
:1009B0004000002408B501208DF800009DF80000DB
:1009C00008BD000038B50024009313460A460146CE
:1009D000034802F06DFA00B10124204638BD000042
:1009E0004000002438B50024009313460A4601460F
:1009F000034802F03FFB00B10124204638BD00004F
:100A000040000024FEE7704772B6FEE7002200F0C7
:100A100001B800000E4B70B505465C7A0120002C31
:100A200014D15E7A03F108009C555E7A03EB8606CA
:100A300075605D7A2A54587A421C5A723A232F22E2
:100A4000303008704B7020468A70CC7070BD00004A
:100A5000D023002470B5044600F030F90546601C30
:100A600002D004480078044400F028F9401BA0425A
:100A7000FAD370BD1C0000242DE9F84F03247D4DEE
:100A800000234FF001094FF0B04B4FF00F0AE9E09F
:100A900009FA03F73A4076D00E7906F00306012EE4
:100AA00001D0022E18D1D0F808C04FEA430ECE680C
:100AB00004FA0EF82CEA080C06FA0EF646EA0C06C2
:100AC0008660D0F804C00E792CEA070CC6F3001635
:100AD0009E4046EA0C0646600E79F643B6070BD0F8
:100AE000C6684FEA43088F6804FA08FC26EA0C0639
:100AF00007FA08F73743C7600E7906F00306022E9F
:100B000012D1DE080F694FEA437C00EB8606B64639
:100B1000366A4FEADC6C0AFA0CF807FA0CF726EA98
:100B200008063743CEF820700F7906684FEA43086D
:100B300007F0030704FA08FC07FA08F726EA0C0690
:100B4000374307604E6816F4403F1CD04A4E376862
:100B500047F00207376036689F0706F002060096E6
:100B600023F0030606F1B046B6463F0FD6F80864F8
:100B7000DFF808810AFA07FC404526EA0C0603D193
:100B80004FF0000C41E06CE0DFF8F4C0604502D1AA
:100B90004FF0010C39E0DFF8ECC0604502D14FF0B6
:100BA000020C32E0DFF8E0C0604502D14FF0030CE8
:100BB0002BE0DFF8D8C0604502D14FF0040C24E0F0
:100BC000DFF8CCC0604502D14FF0050C1DE0DFF826
:100BD000C4C0604502D14FF0060C16E0DFF8B8C083
:100BE000604502D14FF0070C0FE0DFF8B0C0604560
:100BF00002D14FF0080C08E0DFF8A4C0604502D134
:100C00004FF0090C01E04FF00A0C0CFA07FC4CEA1B
:100C1000060CCEF808C44F68DBF80060FF0226EA35
:100C2000020600D516435F46CBF80060D1F804C039
:100C3000DBF804605FEA8C2C26EA020600D5164336
:100C40007E606E684F6826EA0206BF0300D5164331
:100C50006E602E684F6826EA0206FF0300D5164331
:100C60002E605B1C0A6832FA03F67FF411AFBDE810
:100C7000F88F000080000058F44402580000025829
:100C80000004025800080258000C025800100258D4
:100C90000014025800180258001C02580020025884
:100CA000002402580AB1816170470904FBE7000083
:100CB00001480068000C70470010005C0148806823
:100CC000704700001C00002402488168027811442B
:100CD000816070471C000024032010B500F078F8F4
:100CE00001F05AFA0F4A104914681368C4F303223A
:100CF00003F00F038A5CC95C02F01F0201F01F01C0
:100D0000D0400A4A20FA01F11160094908600F2019
:100D100000F010F808B1012010BD00F02BF8002001
:100D200010BD000018440258A07100082C000024D7
:100D30002800002470B50D4D04462878A0B14FF46A
:100D40007A71B1FBF0F00A490968B1FBF0F002F0EA
:100D50007FFA48B9102C07D200222146501E00F01D
:100D600017F800206C6070BD012070BD1C000024CD
:100D700028000024054808B5016841F0020101601F
:100D8000006800F00200009008BD0000F444025822
:100D90000E4BF0B41B680D46C3F30223C3F10706E4
:100DA000042E00D90426191D072901D2002300E0D2
:100DB000DB1E012404FA06F19C40491E2940641EF2
:100DC000994014402143F0BC04F0DFB90CED00E081
:100DD000064900F0070210B54FF6FF040868044BFF
:100DE000204040EA02201843086010BD0CED00E0EE
:100DF0000000FA05134970B50A68D243520705D5B9
:100E0000096801F00701814213D118E00A6822F055
:100E1000070202430A60FFF751FF0A4D4FF47A764A
:100E20000446083D07E000BFFFF748FF001BB04243
:100E300001D9012070BD2868C0438004F4D400208B
:100E400070BD00000C48025810B501F05FF905496B
:100E50000968054AC1F30211515C01F01F01C84045
:100E600010BD000020440258A07100084A4930B566
:100E7000494C0B1D0A680C3409681D68246802F08F
:100E8000030305F00102C1F30511C4F3CC040029EA
:100E900014FB02F200EE102AF8EE400A76D0414A26
:100EA0009FED3E1ADFED3E1AB7EE000A23B1012B8B
:100EB0005AD0022B18D15CE0374C283C23689B06A3
:100EC00012D5394B246801EE901A1168C4F3C1049D
:100ED000F8EE612AE34001EE903AC1F30801F8EE22
:100EE000611A81EEA22A07E002EE101A1168F8EEEC
:100EF000422A81EEA22A45E001EE901A1168F8EE2E
:100F0000611A40EE811A71EE800A62EE200AC1F386
:100F1000462101EE101AB8EE411A31EE001AC0EE69
:100F2000811ABCEEE11A80ED001A1168C1F3064186
:100F300001EE101AB8EE411A31EE001AC0EE811A15
:100F4000BCEEE11A80ED011A1168C1F3066101EEF1
:100F5000101AB8EE411A31EE000A80EE801ABCEE8B
:100F6000C10A80ED020A30BD01EE901ADFED0F2AB2
:100F700003E001EE901ADFED0E2A1168F8EE611A17
:100F800082EEA12AC1F30801B6E7FFE70021016064
:100F90004160816030BD00002844025800000039E3
:100FA0000024744C304402580090D0030024744A4A
:100FB00020BCBE4B494930B5484C0B1D0A6814345F
:100FC00009681D68246802F00303C5F30012C1F329
:100FD0000531C4F3CC04002914FB02F200EE102A00
:100FE000F8EE400A75D03F4A9FED3D1AB7EE000A71
:100FF0006BB1DFED3D1A012B01D0022B64D002EE64
:10100000101A1168F8EE422A81EEA22A21E0334C30
:10101000283C23689B0612D5344B246801EE901AB5
:101020001168C4F3C104F8EE612AE34001EE903A7E
:10103000C1F30801F8EE611A81EEA22A0BE001EE7D
:10104000901ADFED2B2A00BFF8EE611A116882EECC
:10105000A12AC1F3080101EE901A1168F8EE611A95
:1010600040EE811A71EE800A62EE200AC1F3462139
:1010700001EE101AB8EE411A31EE001AC0EE811AD4
:10108000BCEEE11A80ED001A1168C1F3064101EED1
:10109000101AB8EE411A31EE001AC0EE811ABCEEF9
:1010A000E11A80ED011A1168C1F3066101EE101A10
:1010B000B8EE411A31EE000A80EE801ABCEEC10A89
:1010C00080ED020A30BD04E001EE901ADFED092A3E
:1010D000BAE70021016041608160F3E728440258CB
:1010E00000000039384402580024744A0090D003AC
:1010F0000024744C20BCBE4B494930B5484C0B1DF4
:101100000A681C3409681D68246802F00303C5F3EB
:101110000022C1F30551C4F3CC04002914FB02F2F0
:1011200000EE102AF8EE400A75D03F4A9FED3D1AB6
:10113000B7EE000A6BB1DFED3D1A012B01D0022B97
:1011400064D002EE101A1168F8EE422A81EEA22A4B
:1011500021E0334C283C23689B0612D5344B24688D
:1011600001EE901A1168C4F3C104F8EE612AE3405D
:1011700001EE903AC1F30801F8EE611A81EEA22A5D
:101180000BE001EE901ADFED2B2A00BFF8EE611A9A
:10119000116882EEA12AC1F3080101EE901A1168CC
:1011A000F8EE611A40EE811A71EE800A62EE200AB2
:1011B000C1F3462101EE101AB8EE411A31EE001AC1
:1011C000C0EE811ABCEEE11A80ED001A1168C1F37D
:1011D000064101EE101AB8EE411A31EE001AC0EEC7
:1011E000811ABCEEE11A80ED011A1168C1F30661A3
:1011F00001EE101AB8EE411A31EE000A80EE801AA4
:10120000BCEEC10A80ED020A30BD04E001EE901A86
:10121000DFED092ABAE70021016041608160F3E750
:101220002844025800000039404402580024744AFF
:101230000090D0030024744C20BCBE4B2DE9F04F2D
:10124000AC4A0546DFF8A8A280F48070DFF8AC92C3
:1012500089B01311AA4C0843A748AAF104064FF01D
:10126000805C4FF000582CD085F400770F4357D0A6
:10127000DFF87CB285F480670F430BF1080B61D077
:1012800085F400670F4374D085F480570F436ED008
:1012900085F400570F434FF480394FF4003E67D078
:1012A00085F400270F4371D085F480370F436ED04B
:1012B00085F480460E436BD085F400420A4368D023
:1012C0002AE0DAF8001001F00701052924D2DFE84E
:1012D00001F075BC7D25B10006A8FFF7C7FD079892
:1012E00009B0BDE8F08F6846FFF764FE0098F7E7A5
:1012F00003A8FFF701FF0398F2E72068C0F3C100DD
:1013000022FA00F0ECE72268D20571D561456FD171
:101310001846E5E74145E3D00020E1E74846DFE72E
:10132000DAF8001001F4E07180294FD004DC0029C4
:1013300044D04029F0D188E0C029EFD0B1F5807FBA
:10134000EAD177E0DBF8001001F46001B1F5800F1D
:101350003CD004DC91B3B1F5001FDDD175E0B1F5EF
:10136000C00FDBD0B1F5000FD6D163E001E018E08B
:1013700030E0DBF8001001F0E061B1F1007F25D032
:1013800008DCD9B1B1F1807FC6D15EE049E06CE004
:1013900079E09CE0B1F1407FC0D0B1F1806FBBD16A
:1013A00048E0DAF8001001F4E041B1F5005F0DD03B
:1013B00005DC19B1B1F5805FAED146E094E0B1F53E
:1013C000405FABD0B1F5804FA6D133E020688000FC
:1013D000A2D58DE7DAF8001001F4E021B1F5403F25
:1013E0006CD006DC61B149457AD0714594D157E0A3
:1013F00037E0B1F5802F65D0B1F5A02F8CD10CE08E
:1014000000F0A6FE6CE76846FFF7D4FD019867E799
:1014100003A8FFF771FE049862E721688903F1D4FD
:101420007AE7DBF8001011F440310ED0494510D0B6
:101430007145F5D13168256801F040516D077FF5A0
:1014400062AF00297FF45FAF57E720680001E7D55E
:1014500049E720688000E3D503A8FFF74DFE059813
:101460003EE722689203DBD554E7306810F4803001
:101470003AD04845D4D120680001D1D56846FFF75D
:1014800099FD02982CE7DBF8001001F0E041B1F182
:10149000405F13D008DC71B1614521D04145BFD117
:1014A00020688000B4D437E7B1F1804F0AD0B1F1A1
:1014B000A04FB2D030E7FFF7C7FC11E72068400724
:1014C000AED51AE72068C005AAD521E708E0DAF80A
:1014D000001011F04051A0D0614505D041459FD189
:1014E000206800018FD417E72068800198D5F3E6C3
:1014F000504402580090D00340787D010080BB002A
:10150000004402582DE9FE4F0546DFF8E48350F809
:10151000081B0024F64FC943019005F12800264618
:1015200008F12408009008011DD4A86E50B1B0F550
:10153000801F0CD0B0F5001F0ED0B0F5401F1ED09C
:1015400001240FE0386840F40030386017E001985B
:10155000022102F059F803E00098022102F0E4F8B9
:1015600004000CD026462888C043C00523D4A86DAB
:1015700005281ED2DFE800F00C11161B1B00AA6E16
:10158000D8F8001021F440111143C8F80010EAE720
:10159000386840F40030386009E00198002102F01A
:1015A00033F803E00098002102F0BEF8044674B15D
:1015B00000E0012426462888C043800528D4E86D31
:1015C00080281ED00CDC90B140280ED114E0AA6D0A
:1015D000D8F8001021F007011143C8F80010EAE71D
:1015E000C02813D0B0F5807F10D001240FE03868F8
:1015F00040F40030386009E00198002102F004F85E
:1016000003E00098002102F08FF804469CB12646C2
:101610002888DFF8DC92C04309F12C0940052CD45E
:10162000D5F8A800B0F5800F20D00DDCA0B1B0F542
:10163000001F0FD115E0EA6DD8F8001021F4E07119
:101640001143C8F80010E3E7B0F5C00F13D0B0F5B0
:10165000000F10D001240FE0386840F400303860EB
:1016600009E00198002101F0CFFF03E0009800217C
:1016700002F05AF804467CB126462888C04300058B
:101680002DD4D5F8AC00B0F1007F21D00EDCA8B18C
:10169000B0F1807F10D116E0D5F8A820D9F800105D
:1016A00021F460011143C9F80010E6E7B0F1407F72
:1016B00013D0B0F1806F10D001240FE0386840F4EF
:1016C0000030386009E00198002101F09DFF03E03F
:1016D0000098002102F028F8044674B126462868D4
:1016E000C04380011FD4E86CD8B110280FD0202847
:1016F00012D0302815D0012414E0D5F8AC20D9F848
:10170000001021F0E0611143C9F80010E7E73868E4
:1017100040F40030386004E00198022101F074FFC9
:10172000044674B126462888C043C0042BD4286ED2
:10173000B0F5005F20D00DDCA0B1B0F5805F0FD117
:1017400015E06B48EA6C2030016821F0300111434C
:101750000160E8E7B0F5405F13D0B0F5804F10D0DE
:1017600001240FE0386840F40030386009E0019847
:10177000002101F049FF03E00098002101F0D4FFAF
:1017800004468CB126462888C043800429D4686E5C
:10179000B0F5403F23D010DC08B3B0F5803F14D043
:1017A000B0F5003F0FD115E02A6ED8F8001021F4F3
:1017B000E0411143C8F80010E5E7B0F5802F0ED0E6
:1017C000B0F5A02F0BD001240AE00198012101F00F
:1017D0001BFF03E00098012101F0A6FF044694B12D
:1017E00026462888C04340042AD4D5F8B000B0F17A
:1017F000405F23D010DC08B3B0F1805F14D0B0F1AB
:10180000005F0FD115E06A6ED8F8001021F4E021D6
:101810001143C8F80010E4E7B0F1804F0ED0B0F1EA
:10182000A04F0BD001240AE00198012101F0ECFE49
:1018300003E00098012101F077FF044674B12646C9
:101840002888C04300041FD4286FD8B1B0F1805F4E
:101850000ED0B0F1005F10D0012414E0D5F8B02014
:10186000D9F8001021F0E0411143C9F80010E7E772
:10187000386840F40030386004E00198012101F03C
:10188000C3FE044674B126462868C043C0011ED476
:10189000A86CD0B101280ED0022811D0032814D092
:1018A000012413E02A6FD8F8001021F040511143B1
:1018B000C8F80010E8E7386840F40030386004E009
:1018C0000198022101F0A0FE0446ACB1264628682A
:1018D000DFF81CB0C043ABF11C0B400252D40548EA
:1018E000016841F480710160FFF7E8F9824611E078
:1018F0002C44025800480258FA48AA6C016821F0AA
:10190000030111430160E2E7FFF7D8F9A0EB0A00F9
:10191000642835D8F4480068C005F5D58CBBDFF8DD
:10192000C4A3B5F8B4100AF1240ADAF8000001F4EF
:10193000407100F44070884211D0DAF80010DAF8F3
:10194000002021F4407142F48032CAF80020DAF815
:10195000002022F48032CAF80020CAF80010D5F81E
:10196000B400B0F5807F1AD1FFF7A8F9029012E019
:10197000FFF7A4F90299411A41F2883081420AD94D
:10198000032426462878DFF85CA3C0430AF1080A3E
:10199000C00721D03CE0DAF800008007E8D5D5F890
:1019A000B410C1F30120032858460DD0016821F47A
:1019B0007C510160B5F8B420DAF80010C2F30B02D4
:1019C0001143CAF80010DDE7C84A036802EA1112A1
:1019D00023F47C511143ECE7E86F182816D005DC9E
:1019E000A0B1082808D0102804D10AE020280DD082
:1019F00028280BD001240AE00198012101F004FEFF
:101A000003E00098012101F08FFE044664B12646F0
:101A10002878C04380071ED4A86F062819D2DFE8B3
:101A200000F0160C11161616EA6FDAF8001021F005
:101A300038011143CAF80010EAE70198012101F0CA
:101A4000E3FD03E00098012101F06EFE04467CB145
:101A500000E0012426462878C04340071FD4D5F86B
:101A60009400062819D2DFE800F0160C111616169D
:101A7000AA6FDAF8001021F007011143CAF800102C
:101A8000E9E70198012101F0BFFD03E00098012181
:101A900001F04AFE0446A4B100E00124264628785D
:101AA000C04380062BD4D5F89000B0F1405F24D01D
:101AB00011DC10B3B0F1805F15D0B0F1005F10D130
:101AC00016E0D5F89420D9F8001021F00701114351
:101AD000C9F80010E3E7B0F1804F0ED0B0F1A04F8D
:101AE0000BD001240AE00198002101F08DFD03E0F4
:101AF0000098022101F018FE044694B12646287889
:101B0000C04340062BD4D5F89C00B0F5406F24D0DC
:101B100011DC10B3B0F5806F15D0B0F5006F10D1A7
:101B200016E0D5F89020DAF8001021F0E0411143DA
:101B3000CAF80010E3E7B0F5805F0ED0B0F5A05F03
:101B40000BD001240AE00198002101F05DFD03E0C3
:101B50000098022101F0E8FD044694B12646287859
:101B6000C04300062BD4D5F8A000B0F5C04F24D058
:101B700011DC10B3B0F5005F15D0B0F5804F10D177
:101B800016E0D5F89C20D9F8001021F4E05111435B
:101B9000C9F80010E3E7B0F5004F0ED0B0F5204FC4
:101BA0000BD001240AE00198002101F02DFD03E093
:101BB0000098022101F0B8FD044654B12646287869
:101BC000C04300071ED4D5F88400B0F5805F0AD06A
:101BD0000FE0D5F8A020D9F8001021F4604111439E
:101BE000C9F80010EBE70098022101F09DFD00B15B
:101BF0000126D5F88420DAF8001021F44051114371
:101C0000CAF800102878C043C00613D4D5F898004D
:101C1000B0F5807F05D10098022101F085FD00B16B
:101C20000126D5F89820D9F8001021F4407111430D
:101C3000C9F800102868C043000316D4D5F8A400E2
:101C400038B1B0F5803F09D0B0F5003F0BD001248A
:101C50000AE00198002101F0D7FC03E0009802217E
:101C600001F062FD04468CB126462868C04340035B
:101C700022D4D5F88800B0F5801F11D0B0F5001F30
:101C800013D0B0F5401F15D0012414E0D5F8A420DE
:101C9000D9F8001021F440311143C9F80010E4E7ED
:101CA000386840F40030386004E00098012101F009
:101CB0003BFD04465CB126462868C043C00323D4DC
:101CC000286DA8B1B0F5803F17D001241BE0D5F8EE
:101CD0008820DAF8001021F440111143CAF80010EE
:101CE000EAE700004C44025800480258CFFFFF00CA
:101CF000386840F40030386004E00198022101F0B7
:101D000083FC0446E4B126462868C043800005D41D
:101D10000098022101F008FD00B101262868C043A7
:101D200080031BD4D5F88000B0B1B0F5807F0FD010
:101D3000B0F5007F10D0B0F5407F0DD001240CE04D
:101D40005A482A6D016821F4803111430160DBE7B4
:101D5000386840F400303860ECB326462868C04349
:101D6000C00207D46A6FD8F8001021F00041114377
:101D7000C8F800102868C043C00008D4D5F8B820BF
:101D8000DBF8001021F480411143CBF800102868E3
:101D9000C043800207D4EA6ED8F8001021F08071A9
:101DA0001143C8F800102868C04340000CD4DBF889
:101DB000001021F40041CBF80010DBF80010D5F83A
:101DC000BC201143CBF800102868C04308D4374822
:101DD0006A6D016800E018E021F040511143016094
:101DE0002868C043000208D4D5F88C20DAF8001027
:101DF00021F440011143CAF8001028790024C0439F
:101E000000F0010020430AD00FE0D5F88020DAF876
:101E1000001021F440711143CAF800109EE70198A8
:101E2000002101F0F1FB00B106462879C04300F023
:101E30000200204305D10198012101F0E5FB00B12A
:101E400006462879C04300F00400204305D10198DC
:101E5000022101F0D9FB00B106462879C04300F009
:101E60000800204305D10098002101F05DFC00B17D
:101E700006462879C04300F01000204305D10098A1
:101E8000012101F051FC00B106462879C04300F061
:101E90002000044304D10098022101F045FC00B960
:101EA00016B10120BDE8FE8F0020FBE74C4402582C
:101EB0002DE9F05F04000F467ED0DFF83882D8F8B5
:101EC000000000F00F00B8420CD2D8F8001021F04A
:101ED0000F013943C8F80010D8F8000000F00F00D7
:101EE000B84269D12078844D40070AD52069296815
:101EF00001F07001884204D9296821F07001014382
:101F0000296020787C4E361D00070AD5606931684B
:101F100001F07001884204D9316821F07001014359
:101F200031602078C0060AD5A069316801F4E0610B
:101F3000884204D9316821F4E0610143316020789E
:101F4000DFF8B4B180060BF1080B0CD5E1695846F7
:101F5000DBF8002002F07002914204D9026822F0FE
:101F600070020A430260207880070AD5E068296879
:101F700001F00F01884204D9296821F00F010143C3
:101F800029602078C0073ED05B49A26828681839CC
:101F900020F47060104328606068022818D003287D
:101FA00019D00968012819D0490700294ADADFF851
:101FB00048A1AAF1080A00E044E0DAF8002022F083
:101FC00007020243CAF80020FEF778FE814612E0BD
:101FD00009688903E9E709688901E6E7C905E4E7D3
:101FE000FEF76CFEA0EB090141F28830814202D974
:101FF0000320BDE8F09F6168DAF8000000F03800C7
:10200000B0EBC10FECD1207880070AD5E0682968D1
:1020100001F00F01884204D2296821F00F01014329
:102020002960D8F80010404601F00F01B9420BD9E1
:10203000016821F00F0139430160006800F00F00D2
:10204000B84201D00120D4E7207840070AD52069A2
:10205000296801F07001884204D2296821F07001DA
:1020600001432960207800070AD56069316801F0D2
:102070007001884204D2316821F07001014331605F
:102080002078C0060AD5A069316801F4E061884271
:1020900004D2316821F4E061014331602078800688
:1020A0000CD5E1695846DBF8002002F0700291423D
:1020B00004D2026822F070020A43026000F06CF859
:1020C0000E492A682B68C2F3032203F00F038A5CCF
:1020D000C95C02F01F0201F01F01D040084A20FA3B
:1020E00001F111600749086007480068BDE8F05F2A
:1020F000FEF720BE0020005218440258A0710008CC
:102100002C000024280000242000002430B500F01A
:1021100043F80B4A0B490C4B15681468C5F30322AE
:1021200004F00F048A5C095D02F01F0201F01F0138
:10213000D040064A20FA01F119601060084630BD0F
:1021400018440258A07100082C0000242800002424
:1021500000B5FFF7DBFF05490968054AC1F3021125
:10216000515C01F01F01C84000BD00001C44025832
:10217000A071000800B5FFF7C9FF05490968054AC5
:10218000C1F30221515C01F01F01C84000BD0000F5
:102190001C440258A0710008454970B545480968BB
:1021A000434B103B11F0380208D00111082A03D02C
:1021B000102A0BD0182A0BD0084670BD1968890662
:1021C000FBD51968C1F3C101C84070BD3A4870BD64
:1021D0003749374D18310C1D24350A6809682668BF
:1021E0002D6802F0030406F00102C1F30511C5F3E6
:1021F000CC0515FB02F200EE102AB8EE400AE9B356
:102200002F4ADFED2E0AB7EE001A6CB1DFED2D1A62
:10221000012C01D0022C43D002EE101A1068F8EE07
:10222000422A81EEA22A1EE01C68A40611D51B6872
:1022300001EE901A1168C3F3C103F8EE612AD84089
:1022400001EE900AC1F30800F8EE611A81EEA22AAD
:102250000BE001EE901ADFED1C2A00BFF8EE611AC8
:10226000106882EEA12AC0F3080001EE900AF8EE91
:10227000611A40EE201A31EE810A00E015E022EEEC
:10228000000A1068C0F34620401C00EE900AF8EEE9
:10229000600A80EE201ABCEEC10A10EE100A70BD72
:1022A00001EE901ADFED092AD8E7002070BD00008A
:1022B000104402580090D00340787D01000000399E
:1022C000304402580024744A0024744C20BCBE4B95
:1022D0002DE9F05F04007DD0FF4F2078FE4D1837C8
:1022E000DFF8F493103DC00748D0D9F800003968F2
:1022F00000F03800102815D0182803D101F0030091
:1023000002280FD06068B0F5803F12D010B1B0F550
:10231000A02F18D0286820F480302860286820F486
:10232000802009E02868800328D560680028D2D082
:1023300024E0286840F480302860606888B1FEF7A7
:10234000BDFC064609E0286840F480202860F0E7DC
:10235000FEF7B4FC801B64286FD828688003F7D58B
:102360000CE0FEF7ABFC064605E000BFFEF7A6FC5E
:10237000801B6428F0D828688003F7D4207841F2C5
:102380000308D54E0C3E800769D5D9F8000039689E
:1023900010F038000ED0182801D188070AD0E06864
:1023A00090B3296821F0190101432960FEF786FCEA
:1023B000824631E02868400702D5E06800288AD0CC
:1023C000E168286820F0190008432860FEF776FCD1
:1023D000824607E0DFE000BFFEF770FCA0EB0A00DA
:1023E0000228B9D828684007F6D500BFFEF760FC80
:1023F00040451BD82069402812D0316821F47C3137
:1024000041EA003030602AE018E000BFFEF756FCD9
:10241000A0EB0A0002289FD828684007F6D5E5E718
:10242000306820F47C3040F40030EBE7207C3168E9
:1024300021F0FE4141EA0060E4E70DE1286820F068
:1024400001002860FEF73AFC824605E0FEF736FC04
:10245000A0EB0A0002288DD828684007F6D420781F
:10246000C0065DD5D9F80000DFF86CB2396800F01D
:102470003800ABF1040B082810D0182803D101F064
:10248000030001280AD0E0690028286838D040F00D
:1024900080002860FEF712FC824623E02868C00511
:1024A00023D5E069802876D11FE0206A202821D03A
:1024B000316821F0F84141EA8060306030E000BFCF
:1024C00094F82010DBF8002022F07C5242EA0161EF
:1024D000CBF8001024E000BFFEF7F0FBA0EB0A00F1
:1024E000022898D82868C005F6D5FEF7E1FB4045DC
:1024F000E6D8DAE7306820F0F84040F08040DCE7CA
:1025000020F080002860FEF7D9FB064605E000BFFA
:10251000FEF7D4FB801B02289DD82868C005F7D49D
:102520002078000729D56C4861696430002980460D
:10253000016811D041F001010160FEF7BFFB0646C2
:1025400005E000BFFEF7BAFB801B0228C9D8D8F807
:1025500000008007F6D510E021F001010160FEF7D0
:10256000ADFB064605E000BFFEF7A8FB801B022876
:1025700072D8D8F800008007F6D42078800623D5DA
:10258000A0690028286810D040F480502860FEF729
:1025900095FB064605E036E1FEF790FB801B02281E
:1025A0005AD828688004F7D50EE020F480502860BF
:1025B000FEF784FB064604E0FEF780FB801B022842
:1025C0004AD828688004F7D4207840074FD5DFF830
:1025D0000C81D8F8001041F48071C8F80010FEF7A3
:1025E0006DFB064605E000BFFEF768FB801B642814
:1025F00032D8D8F80000C005F6D5374EA06860364E
:1026000001280AD008B1052813D0306820F0010055
:102610003060306820F0040002E0306840F00100D3
:102620003060A06841F2883A90B1FEF747FB8046DF
:102630000AE0306840F004003060EEE7FEF73EFB51
:10264000A0EB0801514507D830688007F6D50EE0A9
:10265000FEF734FB804607E084E000BFFEF72EFB68
:10266000A0EB080151457DD830688007F6D4606A38
:10267000B0B3DFF86480D9F8001008F120084FF6F5
:10268000F87B08F10409C1F3C2010329A8F1040A87
:1026900069D00228286820F08070286003D0FEF7F7
:1026A0000DFB044684E0FEF709FB064605E000BF8B
:1026B000FEF704FB801B022877D828688001F7D436
:1026C000E26A40F2F331386854F8283F884340EA20
:1026D00002101843386004E01044025800480258C1
:1026E000B5E0217B434622894FF4FE0C208A4FF04F
:1026F000FE474902267D521E401EA1F50071C2F31D
:1027000008088AB2761E0CEA004042EA0802024338
:10271000504607EA06610A431A60DAF8002022F000
:102720000102CAF80020D9F80020266A22EA0B022A
:1027300042EAC602C9F80020DAF80010A26921F0C6
:102740000C011143CAF800100168E26921F002018E
:1027500011430160016841F480310160016841F476
:10276000003101E021E027E00160016841F48021AF
:102770000160016841F001010160286840F080704B
:102780002860FEF79BFA044605E000BFFEF796FAC4
:10279000001B022809D828688001F7D557E000BF40
:1027A000FEF78CFA001B022802D90320BDE8F09F37
:1027B00028688001F4D44AE039680128D8F800007C
:1027C00021D0A26A01F0030393421CD1E26AC1F353
:1027D00005118A4217D1216BC0F30802491E8A42B3
:1027E00011D1616BC0F34622491E91420BD1A16BFE
:1027F000C0F30642491E914205D1E16BC0F3066069
:10280000491E814201D00120D0E7A16C4E46D9F883
:102810000000C0F3CC00814219D0DAF80000554620
:1028200020F00100CAF80000FEF748FA4FEA00075E
:10283000FEF744FAB842FBD0A26C306820EA0B00E5
:1028400040EAC2003060286840F0010028600020A3
:10285000ACE700002DE9FC5F0446806B0E460321C7
:1028600084F83010002703285CD0B6F5004F59D00B
:10287000B6F5804F4FF000054FF400684FF08069C7
:1028800004D006B3606B40F000603FE0009500218B
:102890000195206801F024FE80011CD46946204681
:1028A00001F066FE70BB019840032DD5B4F84410CA
:1028B0002068090401F0C8FA20BB206802211DE04D
:1028C000606B284322E0009500210195206801F00B
:1028D00007FE800101D54546F2E76946204601F032
:1028E00047FE78B90198C0030ED5B4F844102068AB
:1028F000090401F0A9FA28B92068002101F0EEFAD4
:102900000028DDD00546DBE74D46D9E76063606B04
:102910004FF4007BDFF8B8A040B121680127C1F86F
:1029200038A042E0606B40F08050EFE700214FF4A8
:102930008030FEF783FC010032D0264D3346D4E9C7
:1029400004C0B1FBF5F8D4E90192804510D9A66D19
:102950005E450DD0B6F5807F11D04FEA6506E0B137
:102960004FEA4008B1FBF8F8B04501D9B1FBF5F0EA
:102970004946CDE900C0206801F0B6FD15E0164ECD
:1029800030B14FEA4008B1FBF8F8A84502D8EFE7AC
:10299000A942EDD9B1FBF6F0EAE7B142E6D8E7E7A4
:1029A000606B012740F0006060632068594601F0C9
:1029B0007CFA30B122680127C2F838A0616B01436C
:1029C0006163012084F830003846BDE8FC9F0000B8
:1029D000FF0FE01F80F0FA0200E1F505F0B5C26DCF
:1029E000920F0A70C26DC2F383624A70C26DC2F365
:1029F00001628A70C26D120CCA70B0F85C20120AB3
:102A00000A7190F85C204A71026E120DCA80026E43
:102A1000C2F303420A72B0F86020C2F3C0324A72B5
:102A2000B0F86020C2F380328A72B0F86020C2F33E
:102A30004032CA72B0F860200026C2F300320A7336
:102A40004E730122836B4FF4007463B1012B3AD0B3
:102A5000036850499963416B41F08051416380F8AC
:102A600030200120F0BDB0F86030456E9B051B0D95
:102A700043EA95730B61436EC3F3C2630B75436EF8
:102A8000C3F302634B75436EC3F342538B75436EBE
:102A9000C3F38243CB75436EC3F3C2330B760D6928
:102AA0006D1C85640B7E03F007039B1C9D408564B1
:102AB0000B7A446503F00F0302FA03F35F0A7D43C8
:102AC000C0E913350EE090F86050436EAD06AD0AD4
:102AD00045EA13430B610B695B1C9B028364C0E9ED
:102AE00013434465B0F86430C3F380334B76B0F8D9
:102AF0006430C3F3C6138B7690F8643003F07F0321
:102B0000CB76836EDB0F0B77836EC3F341734B770A
:102B1000836EC3F382638B77836EC3F38353CB7768
:102B2000836EC3F3405381F8203081F82160836EB7
:102B3000C3F3004381F82230B0F86830C3F3C033E8
:102B400081F82330B0F86830C3F3803381F8243043
:102B5000B0F86830C3F3403381F82530B0F86830FE
:102B6000C3F3003381F82630B0F86830C3F3812313
:102B700081F82730B0F86830C3F3012381F828309A
:102B800090F86800C0F3460081F8290081F82A20F7
:102B90000020F0BDFF0FE01F826B0A60C26B4A602D
:102BA000026C8A60426CCA60826C0A61C26C4A61C3
:102BB000026D8A61406DC8610020704770B5B0F841
:102BC0004410002504460068090401F074FA18B1A5
:102BD000616B0143616304E02068002101F080FC27
:102BE0000546C5F3432070BD2DE9F041054690F838
:102BF000300090B00C460026032810D069462846C5
:102C000001F0FEFD2A4F4FF0010860B12A6801264D
:102C100097636A6B02436A6385F8308039E001206C
:102C200010B0BDE8F08100994FF47F40C1F38111ED
:102C300021700099C1F340116170009900EA1122DE
:102C400042EA11616180019909BA616002992172B9
:102C50000299090A61720299C1F30351A172DDE977
:102C6000022100EA1240C9B20843A0810398C0F3D0
:102C70008520A0730398C0F30120E0730398C0F38C
:102C800003102074039800F00F0060740498000E85
:102C9000A07428684FF4007101F007F928B12A6880
:102CA00001269763686385F830803046B8E70000F6
:102CB000FF0FE01FF0B5040085B020D094F830007D
:102CC000002518B92046257600F098F8042084F8ED
:102CD0003000204600F03CF888B969462046FFF7EE
:102CE00083FF60B99DF81010A26B9DF81100012AB6
:102CF00008D0A5652046E168FFF7ACFD58B101207A
:102D000005B0F0BD014302D04FF4007001E04FF474
:102D10008070A065EEE7FDF7D1FF0127064604E0CD
:102D2000FDF7CCFF801B401C0AD02046FFF746FF72
:102D30000428F5D16563E56284F830700020DFE790
:102D40004FF00040606384F830700320D8E7000043
:102D50002DE9FC414FF0000804464FF48030414615
:102D6000FEF76CFA05004FF0010723D020484346D8
:102D700042464146B5FBF0F6CDE90086206801F0F9
:102D8000B3FB206801F0C0FB1EB17000B5FBF0F58D
:102D90002DB11848B0FBF5F0401CFDF75BFE204656
:102DA00001F0D4FC60B100BF84F83070616B014366
:102DB000616319E04FF0006084F83070606313E0E5
:102DC000204601F047FC0028EED120684FF4007146
:102DD00001F06BF8002808D0226807499163616B05
:102DE0000143616384F830700120BDE8FC8100007C
:102DF00000350C0010210100FF0FE01FF0B5B7B047
:102E00000446142130A8FDF7BAFCC0216846FDF73E
:102E1000B6FC2349206888423FD1002014904FF42B
:102E200080310446CDE900106846FEF76BFB08B11F
:102E3000FDF7EAFD1B48016841F48031016000683C
:102E400000F48030359017480C30016841F00801DB
:102E50000160016801F008013591016841F0040149
:102E600001600068022532AA00F0040035900420B9
:102E7000CDE9300503260C480C2782E8D00030A9A4
:102E8000FDF7FAFD4FF4F85032AACDE930050748B6
:102E900030A982E8D000FDF7EFFD37B0F0BD0000AB
:102EA00000700052D4440258000C02580008025826
:102EB0002DE9F04F87B0994617460D460446FDF7B9
:102EC000FDFE06903DB194F83000012807D0606BFC
:102ED00040F000500DE0606B40F0006009E0226DB2
:102EE000002007EB09016063914204D9606B40F058
:102EF00000706063A8E0032184F830102168C86284
:102F0000A16B012900D07F024FF0020ACDE903A096
:102F100090264FF0FF324FEA492305908DE84C0090
:102F200080462068694601F071F92068B9F1010F07
:102F30004FF00106C16841F04001C16006D9C4F8F4
:102F40002CA03946206801F021F804E0E6623946F9
:102F5000206801F035F8DFF814A150B12368C3F8F8
:102F600038A0616B0143616384F83060C4F82C8041
:102F70006AE0DDF804B01FE0406B000414D5BBF13B
:102F8000200F11D30027206801F0C4FA020A28702C
:102F9000010C6A70030EA9707F1CEB70082F05F1FD
:102FA0000405F0D3ABF1200BFDF788FE0699411A1A
:102FB0001098814221D200B32068416B11F4957FB3
:102FC000DAD0C16821F04001C1602068416BC905B9
:102FD00022D5B9F1010F1FD9A16B03291CD001F033
:102FE000B7F8C8B12368C3F838A0626B02436263C4
:102FF00084F83060C4F82C8026E02268C2F838A03B
:10300000606B40F00040606384F83060C4F82C804E
:10301000032007B0BDE8F08F2068416B090706D593
:10302000C0F838A0616B404641F0080108E0416BF0
:1030300089070BD5C0F838A0616B404641F002010A
:10304000616384F83060E0620120E2E7416B890649
:1030500006D5C0F838A0616B404641F02001EFE78B
:103060000349816384F830600020D2E7FF0FE01F3E
:103070003A0F00182DE9F04F89B09A4616460D46D2
:103080000446FDF71BFE06903DB194F83000012880
:1030900007D0606B40F000500DE0606B40F00060C6
:1030A00009E0226D002006EB0A016063914204D919
:1030B000606B40F000706063B2E0032184F8301070
:1030C0002168C862A16B012900D076024FF0FF3160
:1030D0004FEA4A22059090230490CDE90230CDE9D1
:1030E000001280462068694601F090F82068C168A7
:1030F000BAF1010F41F04002C26006D92020E0621F
:103100002068314601F04EF805E01020E0622068AA
:10311000314601F061F8DFF830B106004FF00109E7
:103120000AD02368C3F838B0606B3043606384F81A
:103130003090C4F82C8073E00198089027E0406B31
:1031400040041CD50898202819D300272878079018
:10315000697840EA01200790A97840EA0140079089
:10316000E9782D1D40EA01600790206807A901F069
:10317000E9F97F1C082FE9D3089820380890FDF75B
:103180009DFD0699411A1298814221D200B3206810
:10319000416B11F48D7FD2D0C16821F04001C16034
:1031A0002068416BC90521D5BAF1010F1ED9A16B69
:1031B00003291BD000F0CCFFC0B12568C5F838B09A
:1031C000616B0143616384F83090C4F82C8027E080
:1031D0002368C3F838B0626B3243626384F830907E
:1031E000C4F82C80032009B0BDE8F08F2068416B43
:1031F000090707D54946C0F838B0626B404642F02F
:10320000080209E0416B89070CD54946C0F838B07F
:10321000626B404642F00202626384F83010E06262
:103220000120E0E7416BC90607D54946C0F838B030
:10323000626B404642F01002EEE7044A826384F873
:1032400030900020CFE70000FF0FE01F3A0F00187A
:10325000401EB0F1807F10B501D3012010BD4FF0AA
:10326000E02460610F21601701F08FFF0020A06152
:103270000721216110BD30B590F88410012918D0C4
:10328000012280F884202421C0F888100022202404
:1032900001680B680D6823F0005325F001050D60EF
:1032A000426601680B60C0F8884080F884201046B0
:1032B00030BD022030BD70B5044690F8840001286E
:1032C0001DD0012284F884202420C4F888002068BE
:1032D0000568026822F0010202602068826822F01C
:1032E00060620A438260204601F028FC22682021A7
:1032F00000201560C4F8881084F8840070BD022096
:1033000070BD70B5044690F8840001281DD00122DC
:1033100084F884202420C4F88800206805680268A6
:1033200022F0010202602068826822F060420A43B3
:103330008260204601F002FC2268202100201560F6
:10334000C4F8881084F8840070BD022070BD10B5E8
:10335000040003D0D4F8880010B107E0012010BDAC
:10336000002084F88400204600F026F82420C4F8C9
:1033700088002068016821F001010160A06A10B195
:10338000204601F0FDFB204601F0DEFC0128E6D0DE
:103390002068416821F4904141602068816821F0F3
:1033A0002A0181602068016841F001010160204626
:1033B000BDE8104001F048BC10B5B6B00446142179
:1033C00030A8FDF7DCF9C0216846FDF7D8F91949A6
:1033D000206888422CD10020022104221E92CDE9CF
:1033E00000106846FEF78EF808B1FDF70DFB124895
:1033F000016841F480210160006800F4802035906C
:103400000D480838016841F0020101600068072397
:10341000022200F00200359000204FF4406130910C
:1034200030A9CDE93120CDE933030448FDF724FB71
:1034300036B010BD00480040E8440258000402586D
:103440002DE9F8430446D0F88800984616460D4604
:10345000202802D00220BDE8F883A5B19EB100214A
:10346000C4F890102120C4F888001834FDF726FC19
:10347000814654F8100CA687E6872027183CB0F543
:10348000805F02D003E00120E5E7206910B12E46FD
:10349000002510E000260EE08021204601F02AFEE3
:1034A000C0B9DEB116F8010B21688862B4F8560085
:1034B000401EA4F85600B4F856004B464FF00002E8
:1034C000CDF800800028E7D14FF04001204601F000
:1034D00011FE48B1C4F888700320BCE735F8020B30
:1034E0002168C0F30800E0E7C4F888700020B2E764
:1034F000FEE700000449054810B5FDF787FA0249C8
:10350000491E087010BD000032000024B071000890
:1035100010B586B014216846FDF731F91D480168E1
:1035200041F001010160016801F0010105910168AC
:1035300041F008010160016801F00801059101688E
:1035400041F004010160016801F004010591016886
:1035500041F080010160016801F08001059101687E
:1035600041F002010160006800220B4C022100F0D2
:10357000020005902046FDF795FB002102200090F7
:1035800001222046CDE9012103916946FDF774FA35
:1035900006B010BDE0440258000002581748002150
:1035A00010B5154C0C224FF416530460C0E90131DC
:1035B000C160C0E904128161C1610162416281623E
:1035C000FFF7C5FE08B172B6FEE70C480021FFF711
:1035D00098FE08B172B6FEE708480021FFF76BFEBF
:1035E00008B172B6FEE70548FFF745FE002801D096
:1035F00072B6FEE710BD000000480040BC00002489
:10360000FEE7FEE7704700002DE9F047454D044610
:1036100089464FF0000A2868C04380070AD0414E0F
:10362000283E306820F080603060FDF747FB074699
:10363000B04608E00120BDE8F08700BFFDF73EFB83
:10364000C01B022867D8D8F800000001F6D4206813
:1036500029684FF4FE0721F47C313E0241EA003034
:103660002860207AA389B4F804C040022D4D2D496A
:103670005B1E227CACF1010C1035091DA0F5007019
:1036800080B2521ECCF3080C07EA034340EA0C0058
:10369000184306EA0262104328600868626920F055
:1036A000C000104308600A68A06922F020020243AB
:1036B0000A60281D0A6822F010020A6002684FF6AC
:1036C000F873E4699A4342EAC40202600868B9F1F7
:1036D000000F40F010020A6011D00868B9F1010F24
:1036E00011D040F400100860D8F80000444640F0C3
:1036F0008060C8F80000FDF7E1FA05460DE00868B3
:1037000040F40020EFE740F48010ECE7FDF7D6FA34
:10371000401B022801D903208DE720680001F5D560
:10372000504688E7284402582DE9F047454D0446A5
:1037300089464FF0000A2868C04380070AD0414EEE
:10374000283E306820F080503060FDF7B7FA074619
:10375000B04608E00120BDE8F08700BFFDF7AEFAF3
:10376000C01B022867D8D8F800008000F6D4208853
:1037700029684FF4FE0721F07C713E0241EA0050B7
:103780002860207AA389B4F804C040022D4D2D4949
:103790005B1E227CACF1010C1835091DA0F50070F0
:1037A00080B2521ECCF3080C07EA034340EA0C0037
:1037B000184306EA0262104328600868626920F430
:1037C0004060104308600A68A06922F40072024356
:1037D0000A60281D0A6822F480720A6002684FF6A7
:1037E000F873E4699A4342EAC40202600868B9F1D6
:1037F000000F40F480720A6011D00868B9F1010F1F
:1038000011D040F080700860D8F80000444640F0C5
:103810008050C8F80000FDF751FA05460DE0086831
:1038200040F48000EFE740F40000ECE7FDF746FAD3
:10383000401B022801D903208DE720688000F5D5C0
:10384000504688E72844025870B5A4490122A4488C
:1038500002F0B2FBA34C021E4FF0FF35227001D0E4
:10386000A1A159E0B648ADA1FCF708FEB448FCF7A9
:1038700067FFB34982B22B46A1F19400FFF7E0FD48
:10388000984AB0A0121D02F10C0102F0E9F960683B
:10389000B6EE001BC1694089891E414300EE101A33
:1038A000B8EE400B20EE010BBCEEC00B10EE102A60
:1038B000626121694843A4A100EE100AA048B8EE55
:1038C000400B20EE010BBCEEC00B84ED060AFCF7AA
:1038D000D5FD9B48FCF734FF994982B22B46A1F1F4
:1038E0009400FFF7ADFD96489FA1A269FCF7C6FDC5
:1038F0009348FCF725FF924982B22B46A1F1940030
:10390000FFF79EFD8E480B229FA1FC3002F080FB4A
:10391000021E607004D0A0498948FCF7AFFDB5E0F5
:1039200087489EA1FCF7AAFD8548FCF709FF84495A
:1039300082B22B46A1F19400FFF782FD8049A7A037
:10394000FC3102F077FCC348B3A1FCF7D5FEC148B7
:10395000FCF7F6FE634B02467948BE490C33FC3057
:1039600002F0CFFD7648FC3002F066F9744801227F
:1039700085A1FC3002F04CFB6070207808B1B6A144
:1039800081E06F4AFA21B348FC3202F0D3F9B14A20
:10399000C0A16B48FCF772FD6948FCF7D1FE68498D
:1039A00082B22B46A1F19400FFF74AFD644E4D4BC5
:1039B000FC36A84908333046F26802F04EFCA54AAE
:1039C000C1A15F48FCF75AFD5D48FCF7B9FE5C49B0
:1039D00082B22B46A1F19400FFF732FD304602F08F
:1039E0002BF95748C5A1FCF749FD5548FCF7A8FE3F
:1039F000534982B22B46A1F19400FFF721FD022228
:103A0000304661A102F004FB60703046F16802F0BC
:103A1000B5F9207008B1BEA135E04949CBA0FC3111
:103A200002F008FC20704648FC3002F005F9894895
:103A3000FA21FCF7A4FE4248012253A1FC3002F017
:103A4000E7FA2070274B3E4882490833F268FC3081
:103A500002F003FC7F4AC9A13948FCF70FFD384842
:103A6000FCF76EFE364982B22B46A1F19400FFF7B7
:103A7000E7FC3348FC3002F0DFF843A002F0EEFC34
:103A8000207068B1CAA12E48FCF7F8FC2C48FCF75E
:103A900057FE2B4982B22B46A1F19400FFF7D0FCD0
:103AA000002228A1104602F087FA021E227004D0DC
:103AB0002348CDA1FCF7E2FC03E02148D8A1FCF7A4
:103AC000DDFC1F48FCF73CFE1D492B46BDE870405D
:103AD00082B2A1F19400FFF7B3BC000032000024D1
:103AE00078130024000000244572726F7221205761
:103AF00068696C65204D6F756E74696E67205344FC
:103B000020436172642C204572726F7220436F648F
:103B1000653A20282569290D0A00000053442043F6
:103B2000617264204D6F756E7465642053756363B4
:103B300065737366756C6C7921200D0A0A000000AC
:103B40005001002400000000546F74616C20534445
:103B500020436172642053697A653A2025752042BA
:103B6000797465730D0A0000467265652053442020
:103B7000436172642053706163653A202575204269
:103B8000797465730D0A0A004D7954657874466935
:103B90006C652E7478740000307600085465787473
:103BA0002046696C65204372656174656420262037
:103BB0004F70656E6564212057726974696E672065
:103BC0004461746120546F20546865205465787492
:103BD0002046696C652E2E0D0A0A000048656C6C43
:103BE0006F212046726F6D2053544D333220546F35
:103BF0002053442043617264204F76657220534401
:103C00004D4D432C205573696E6720665F70757447
:103C10007328290A0000000048656C6C6F2120465B
:103C2000726F6D2053544D333220546F2053442013
:103C300043617264204F7665722053444D4D432C8E
:103C4000205573696E6720665F77726974652829ED
:103C50000D0A00007C1200244572726F72212057F9
:103C600068696C65204F70656E696E6720284D79B4
:103C70005465787446696C652E7478742920466999
:103C80006C6520466F7220526561642E2E200D0AED
:103C90000000000044617461205265616420467236
:103CA0006F6D20284D795465787446696C652E7463
:103CB000787429205573696E6720665F6765747331
:103CC00028293A257300000044617461205265611F
:103CD000642046726F6D20284D795465787446696A
:103CE0006C652E74787429205573696E6720665F41
:103CF0007265616428293A257300000046696C6585
:103D000020436C6F73656421200D0A0A00000000D7
:103D10004572726F7221205768696C65204F70651B
:103D20006E696E6720284D795465787446696C65B4
:103D30002E747874292046696C6520466F72205570
:103D400070646174652E2E200D0A0000546869733A
:103D5000204E6577204C696E652057617320416461
:103D600064656420447572696E672046696C6520DD
:103D7000557064617465210D0A000000446174612E
:103D800020526561642046726F6D20284D7954651C
:103D9000787446696C652E74787429204166746560
:103DA00072205570646174653A0D0A257300000035
:103DB0004572726F7221205768696C652044656C8A
:103DC0006574696E672054686520284D795465785C
:103DD0007446696C652E747874292046696C652E6A
:103DE0002E200D0A000000000D0A4572726F72212C
:103DF000205768696C6520556E2D6D6F756E7469FE
:103E00006E6720534420436172642C204572726FA8
:103E10007220436F64653A20282569290D0A000045
:103E20000D0A5344204361726420556E2D6D6F75E9
:103E30006E746564205375636365737366756C6C2B
:103E40007921200D0A00000030B585B004463720E6
:103E50004FF480720DF1080CCDE900100023694683
:103E6000150120468CE82C0000F058FB372141F268
:103E70008832204600F0DEF905B030BD30B585B09F
:103E8000044629204FF480720DF1080CCDE9001092
:103E900000236946150120468CE82C0000F03EFB0B
:103EA000204600F083FA05B030BD30B5044610203E
:103EB00085B00DF1080C02010502CDE900100023C8
:103EC00069468CE82C00204600F028FB102141F2C6
:103ED0008832204600F0AEF905B030BD30B585B06F
:103EE000044606204FF480720DF1080CCDE9001055
:103EF00000236946150120468CE82C0000F00EFBDB
:103F0000062141F28832204600F094F905B030BD18
:103F100030B585B00546002469464FF480500094C2
:103F200001940294CDE90340284600F0F7FA0B4AC9
:103F30004FF4FA5041F288311268B2FBF0F0484376
:103F4000401E03D24FF0004005B030BD696B09063A
:103F5000F6D503492046A963F6E7000028000024AF
:103F6000C500200030B50821044685B04FF4D57057
:103F70004A0100234D028DE82F006946204600F0DB
:103F8000CDFA204600F07CFA05B030BD30B585B0E2
:103F9000044612204FF480720DF1080CCDE9001098
:103FA00000236946150120468CE82C0000F0B6FA83
:103FB000122141F28832204600F03CF905B030BDB4
:103FC00030B585B0044611204FF480720DF1080C15
:103FD000CDE9001000236946150120468CE82C002D
:103FE00000F09CFA112141F28832204600F022F9BB
:103FF00005B030BD30B585B0044607204FF480725F
:104000000DF1080CCDE9001000236946150120468A
:104010008CE82C0000F082FA072141F28832204619
:1040200000F008F905B030BD10B585B00446002198
:1040300002204FF44072C3020493CDE90010CDE991
:1040400002216946204600F069FA204600F084F912
:1040500005B010BD30B585B0044609200DF1080C3F
:104060000023CDE900104FF4407269464FF48055AB
:1040700020468CE82C0000F051FA204600F06CF944
:1040800005B030BD10B585B00446002133204FF493
:104090008072CDE90221CDE9001013016946204666
:1040A000049300F03BFA332141F28832204600F0BD
:1040B000C1F805B010BD30B585B004460D204FF4F1
:1040C00080720DF1080CCDE900100023694615013E
:1040D00020468CE82C0000F021FA0D2141F28832B4
:1040E000204600F0A7F805B030BD30B585B00C46CD
:1040F0000021054603204FF48072CDE90221CDE96D
:104100000010130169462846049300F007FA0321C2
:104110002246284600F06EF905B030BD10B585B0D6
:10412000044600210D204FF48072CDE90221CDE933
:104130000010130169462046049300F0EFF90D21A9
:1041400041F28832204600F075F805B010BD00003D
:1041500010B585B004464FF4807200200C21130185
:104160008DE80700CDE90303E06840F08000E060DF
:10417000E06820F04000E0606946204600F0CEF99B
:10418000074A0C21204600F055F8E168B0F1007FA5
:1041900021F08001E16000D1002005B010BD0000D9
:1041A00000E1F50530B585B0044619204FF4807262
:1041B0000DF1080CCDE900100023694615012046D9
:1041C0008CE82C0000F0AAF9192141F2883220462F
:1041D00000F030F805B030BD30B585B00446182089
:1041E0004FF480720DF1080CCDE9001000236946F0
:1041F000150120468CE82C0000F090F9182141F2BE
:104200008832204600F016F805B030BD70B50A6857
:1042100042624A688262C46AD1E90225D1E9043661
:1042200024F0FF012A4333431A431143C1620020A3
:1042300070BD000030B5464D4FF4FA53434C2D6825
:10424000B5FBF3F353435B1E02D24FF0004030BD89
:10425000426B2242F7D09204F5D4426B520703D549
:1042600004218163084630BD426BD20702D0012190
:10427000816306E0354A803282630269D2B28A42A3
:1042800001D0012030BD002100F02AF93149084257
:1042900001D1002030BD002802DA4FF0007030BD9F
:1042A000410001D5402030BD810001D5802030BDC6
:1042B000C10002D54FF4807030BD010102D54FF42A
:1042C000007030BD410102D54FF4806030BDC101A6
:1042D00002D54FF4006030BD010202D54FF480508A
:1042E00030BD410202D54FF4005030BD810202D5ED
:1042F0004FF4804030BDC10202D54FF4004030BDC4
:10430000410302D54FF4003030BD810302D54FF494
:10431000802030BDC10302D54FF4002030BD010420
:1043200002D54FF4801030BD410402D54FF4001087
:1043300030BD810402D54FF4800030BD000702D5A6
:104340004FF4000030BD4FF4803030BD45002000F8
:104350002800002408E0FFFD124B4FF4FA5141F20F
:1043600088321B68B3FBF1F15143491E02D24FF072
:1043700000407047426B12F0450FF6D09204F4D41F
:10438000416B490703D50421816308467047416B9F
:10439000C90703D001218163084670470249816340
:1043A0000020704728000024C50020000F4B4FF468
:1043B000FA5141F288321B68B3FBF1F15143491EB7
:1043C00002D24FF000407047426B12F0450FF6D01A
:1043D0009204F4D4416B490703D504218163084654
:1043E00070470349816300207047000028000024C3
:1043F000C500200030B5204D4FF4FA5341F2883407
:104400002D68B5FBF3F363435B1E02D24FF000400F
:1044100030BD446B14F0450FF6D0A404F4D4436BC4
:104420005B0703D504218163084630BD436BDB077E
:1044300002D00121816303E00369DBB28B4201D02A
:10444000012030BD0D498163002100F049F810F4CE
:10445000604F04D0410406D54FF4005030BD000C2D
:104460001080002030BD000402D54FF4805030BDD4
:104470004FF4803030BD000028000024C50020002B
:10448000144B4FF4FA5141F288321B68B3FBF1F13F
:104490005143491E02D24FF000407047426B12F068
:1044A000450FF6D09204F4D4416B490703D504219B
:1044B000816308467047416BC90703D001218163BE
:1044C00008467047416B490601D5402181630020B1
:1044D0007047000028000024006800F003007047C7
:1044E000084440697047000030B511434268DDE977
:1044F00003542B43034D194321432A400A4342608E
:10450000002030BD002CC0FF016841F003010160B4
:1045100000207047D0F880007047000070B5084D4B
:104520000A688260C368D1E90126D1E903412B40C2
:1045300032430C4322431343C360002070BD00008C
:10454000C0E0FEFF0968C0F880100020704700003E
:1045500010B5064C01202070FCF708FA18B9207835
:1045600020F001002070207810BD000030000024F1
:104570002DE9F04F87B00D460446FCF79FFB00265F
:10458000069020680821B3463746FFF78EFC0028C6
:1045900033D1B4F8441020680904FFF755FC002813
:1045A0002BD1431E4FF008094FF0020A4FF0300C98
:1045B0004FF00108CDF80CA08DE80812CDE9046891
:1045C00020686946FFF722FE2068FFF75BFD0028A0
:1045D00013D140F22A582068416B11EA080F06D126
:1045E000416B090315D4BBF1000F09D011E0416BF9
:1045F000090717D5C0F83890082007B0BDE8F08F3C
:10460000FFF788FF06462068FFF784FF07464FF054
:10461000010BFCF753FB0699401A401CDBD14FF00D
:104620000040EAE7416B890703D5C0F838A00220B3
:10463000E3E7416B890603D5202181630846DCE767
:10464000034A39BA33BA82630020C5E90013D4E7BC
:104650003A0F001870B58CB004460020ADF82C005D
:10466000FCF72CFB05462068FFF736FF002853D0E7
:10467000A06B032841D02068FFF7D6FC002849D161
:1046800020680021FFF72CFFE06604212068FFF777
:1046900027FF206708212068FFF722FF60670C21B1
:1046A0002068FFF71DFFA16BA067032925D041F209
:1046B000883600BFBDF82C0088B3A06B03281CD03F
:1046C000BDF82C10616420680904FFF7C3FC0028C2
:1046D00020D120680021FFF703FFE0650421206856
:1046E000FFF7FEFE206608212068FFF7F9FE6066EE
:1046F0000C212068FFF7F4FEA06604212068FFF774
:10470000EFFE000D694620642046FEF767F9A8B168
:104710004FF080500CB070BD4FF08060FAE7FFE7BB
:1047200020680BA9FFF7E1FC0028F3D1FCF7C6FADB
:10473000401BB042BED34FF00040EBE7B4F844104A
:1047400020680904FFF756FCE4E700002DE9F84F64
:10475000002604463546B04600960068FFF7D8FBB1
:10476000002829D12068FFF7FDFBB0F1004F4FF082
:1047700001094FF0805B4FF6FF7702D0C4F83C9000
:1047800008E0E6632068FFF7C3FB002814D1E06B64
:1047900001281ED120680021FFF756FB58B918E008
:1047A00020680021FFF750FB002805D12068514602
:1047B000FFF764FB10B15846BDE8F88F2068002170
:1047C000FFF78EFE4FEAD07805460098401C009017
:1047D00002E0DFF828A00098B84202D2B8F1000F3A
:1047E000DED00098B84202D34FF08070E4E7680052
:1047F000A66301D5C4F838900020DDE7000010C1A1
:104800002DE9F04186B00D460446FCF757FA002129
:1048100007462068FFF764FE800104D54FF400606E
:1048200006B0BDE8F08120684021FFF73EFBC0B92B
:10483000B4F8441020680904FFF706FB88B940214A
:104840004FF0FF3060224FF0010C022300268DE86C
:104850004F1020686946FFF7D9FC2068FFF75EFC1F
:1048600098B1616B6163DBE7406B000407D50026FC
:104870002068FFF74FFE761C082E01C5F8D3FCF721
:104880001DFAC01B401C02D127E04FF000482068F1
:10489000416B11F4957FE7D0416B090701D50820E2
:1048A000BEE7416B890701D50220B9E7406B80065E
:1048B0000AD52020B4E700BFFFF72CFE01C5FCF7A6
:1048C000FDF9C01B401C08D02068416BC904F3D41B
:1048D0000146034888630020A2E74046A0E70000A5
:1048E0003A0F001870B5064C054601202070FCF701
:1048F00049F818B92846FFF72BFE2070207870BDC4
:1049000030000024144810B58AB014460078C0075F
:1049100002D003200AB010BD39B1012907D0022905
:104920000BD0032910D00420F4E70020F2E76846FA
:10493000FCF716F8069900200CE06846FCF710F822
:10494000079900202180E5E76846FCF709F80799F8
:104950000020490A2160DDE73000002470B5012401
:104960001D4616460846A31E2A463146FCF72AF87D
:1049700028B900BFFBF7FAFF0028FBD1002420462E
:1049800070BDFFF7E5BD000070B501241D46164659
:104990000846A31E2A463146FCF724F828B900BF72
:1049A000FBF7E4FF0028FBD10024204670BD7047D0
:1049B000FCF78AB970B59CB04C216846FBF7DFFE66
:1049C000202113A8FBF7DBFE0220FCF713FA224993
:1049D0000A68224822F001020A600968016821F48D
:1049E000404141F4804101600168002401F44041EC
:1049F0001B9101688904FCD502202025112100911A
:104A000010260A90CDE90850C20301928023079333
:104A10000DAD192108220C23CDE90B0685E81F00F6
:104A200068461294FDF754FC08B172B6FEE713AA6B
:104A30003F20032182E813000221169413A8179443
:104A4000189419941A94FDF733FA002801D072B61D
:104A5000FEE71CB070BD00002C0400581848025836
:104A60002C48F0B52C4A016841F4700101601068CF
:104A700000F00F00072804D2106820F00F00C01DBE
:104A8000106026490020254C10340B68244D43F05B
:104A900001030B6020600B682B400B60136803F070
:104AA0000F03072B04D9136823F00F03DB1D1360DA
:104AB0001A4C1C4A18341C4B261D371D2060174CFD
:104AC0001A4D28343060261D3860371D23603B1D89
:104AD00035601C1D3A60251D2E1D1860331D226097
:104AE0002860326018600A680C4B114C22F4802256
:104AF00060330A60186020686FF30F00B0F1005F48
:104B000003D20C490120C1F8080143F2D2000A493E
:104B10000860F0BD88ED00E000200052004402581B
:104B20007FEDF6EA80020101000202020000FF01AF
:104B30000010005C008000510040005230B5416E12
:104B4000B9B101680D4B03F108048A688968C2F3A2
:104B50004262490F5D5C615C2D01B5FBF1F1A0F88B
:104B60006A10995CA25C0901B1FBF2F1A0F868102F
:104B700030BD0121A0F86A10F8E70000907100082C
:104B800090F82810090706D50168836B4A6822F45B
:104B900000421A434A6090F82810C90706D00168FD
:104BA000C36A4A6822F400321A434A6090F8281017
:104BB000890706D50168036B4A6822F480321A43DC
:104BC0004A6090F82810490706D50168436B4A6887
:104BD00022F480221A434A6090F82810C90606D5AC
:104BE0000168C36B8A6822F480521A438A6090F885
:104BF0002810890606D50168036C8A6822F40052E1
:104C00001A438A6090F82810490611D50168436C50
:104C10004A6822F480121A434A60416CB1F5801F41
:104C200006D10168836C4A6822F4C0021A434A60C4
:104C300090F82810090606D50168C26C486820F46F
:104C400000201043486070472DE9F84300250446D2
:104C5000C0F89050FCF732F88046206820266FF0AC
:104C60007E470068000713D50022434631042046E2
:104C7000009700F03FFA58B1216851E8000F20F08A
:104C8000800041E80002002AF6D1C4F8886021E0E3
:104C900020680068400722D5002243464FF4800177
:104CA0002046009700F026FAC8B1206850E8001F9F
:104CB00021F4907140E80012002AF6D120680830F3
:104CC00050E8001F21F0010140E80012002AF5D150
:104CD000C4F88C60032084F88450BDE8F883C4F8DD
:104CE0008860C4F88C60E5662567002084F88450ED
:104CF000F3E7000010B5026852E8001F21F490713C
:104D000042E80013002BF6D10E4B0268083252E83D
:104D1000001F194042E80014002CF6D1C16E012991
:104D200008D1026852E8001F21F0100142E8001388
:104D3000002BF6D100212022C0F88C20C1664167EB
:104D400010BD0000FEFFFFEF2DE9F0430446806830
:104D5000D84E87B0D84B2168D4E90427D4F81CC0BA
:104D600010430A68002547EA0C07384332400243E3
:104D70000A602068E268416821F4405111434160B3
:104D80002268A1699A4201D0206A01439768DFF83E
:104D90002CC3CB4ECB4807EA0C070F439760216822
:104DA000676ACA6A22F00F023A43CA622268B242B4
:104DB0000ED1006800F03800182873D047DCB8B373
:104DC000082879D010286FD178E028287ED17BE0A0
:104DD000BD498A4209D1006800F00700062875D253
:104DE000DFE800F0546A6C6E7072B8498A4209D1EB
:104DF000006800F00700062868D2DFE800F0475D91
:104E00005F616365B2498A4209D1006800F007001A
:104E100006285BD2DFE800F03A5052545658AD49AC
:104E20008A420BD1006800F0070006284ED200E04D
:104E300010E0DFE800F02B4143454749A6498A428C
:104E40000AD1006800F03800182839D0B7DD2028D2
:104E5000BBD13CE001203AE0A0498A4209D1006878
:104E600000F00700062831D2DFE800F01026282ADB
:104E70002C2E9B498A420BD1006800F007000628BF
:104E800024D2DFE800F003191B1D1F2100201EE0C3
:104E90009A421BD18B48001D006800F007000628CD
:104EA00014D202E00CE007E010E0DFE800F00305B8
:104EB00007090B0D02200AE0042008E0082006E0A4
:104EC000102004E0202002E0402000E080208549FE
:104ED000DFF814829A42854A4FF400434FEA2117C3
:104EE0004FF000064ED110281AD006DC022809D057
:104EF00004280BD008287CD10DE020283ED0402883
:104F000077D13DE0FBF7A0FF014610E06846FCF7D3
:104F100051F801990BE003A8FCF7EEF8049906E0BC
:104F20001068800605D51068C0F3C100C140002993
:104F300070D0606A676838F8102007EB4703B1FB50
:104F4000F2F0834255D8B0EB073F52D80023084611
:104F50001946FBF71BFA02467808130E120243EAC1
:104F6000012110183A4671410023FBF70FFA604AFD
:104F7000A0F5407191423CD821688FE03946D8E7CE
:104F80001946D6E7D4F81CC04FF6EF799C4546D1B8
:104F9000082819D005DC58B101280CD0042875D197
:104FA0000DE0102815D0202835D040286ED134E0EF
:104FB000FDF7CEF801E0FDF7DDF8014610E06846A8
:104FC000FBF7F8FF01990BE003A8FCF795F80499AB
:104FD00006E01068800604D51068C0F3C100C14027
:104FE000C1B1636A606838F81330B1FBF3F149006E
:104FF00000E04BE001EB5001B1FBF0F0A0F110013B
:10500000494543D84FF6F0732168C0F34202184077
:10501000104343E043E03946E3E71946E1E7082857
:1050200019D005DC58B101280CD004282ED10DE090
:10503000102815D020282BD0402827D12AE0FDF7B2
:1050400087F801E0FDF796F8014610E06846FBF7A7
:10505000B1FF01990BE003A8FCF74EF8049906E0B4
:105060001068800604D51068C0F3C100C140B1B11A
:10507000636A606838F81330B1FBF3F101EB50015B
:10508000B1FBF0F0A0F11001494505D9012506E07A
:105090003946EDE71946EBE7216880B2C860012088
:1050A000A4F86A00A4F8680028466667A66707B0F7
:1050B000BDE8F083F369FFCF000C0058FFF4FF1147
:1050C0000010014054440258004400400048004091
:1050D000004C0040005000400014014000780040A7
:1050E000007C00400090D003787100080044025812
:1050F000FFFC0F002DE9F047994617460D46044680
:10510000089E4FF0000833E0701C31D0FBF7D6FD4D
:10511000A0EB0900B04218D8BEB120680168490769
:1051200026D5802D24D0402D22D0C169C94309073E
:105130000DD4082505622046FFF7DCFDC4F8905029
:10514000012084F88480BDE8F0870320FBE7C06974
:10515000C04300050CD421684FF40060086220466B
:10516000FFF7C8FD2021C4F8901084F88480ECE794
:105170002068C06935EA000004D00020B842C3D0DE
:105180000020E0E70120F9E7FEE7090700284FEAE1
:10519000116104DB00F1E02080F80014704700F09A
:1051A0000F0000F1E02080F8141D704730380A2805
:1051B00001D20120704700207047000010B504465E
:1051C0000022501EE2706063204601F0C0FD08B16D
:1051D000042010BD04F2362001F080FDA0F52A4124
:1051E000553901D0032010BD94F83800E92805D0C6
:1051F000EB2814D194F83A00902810D104F16E00F5
:1052000001F061FD0749B1EB002F06D004F18A00DF
:1052100001F059FD0449884201D1002010BD02204F
:1052200010BD0000004641544641543300E0401C8C
:1052300002780AB18A42FAD1D0B27047F0B5154D62
:105240000022134605EB021426685EB10768BE42D1
:1052500009D166688768BE4205D1A4684669B44230
:1052600004D000E00123521C022AEBD3022A01D011
:1052700069B904E04BB9022907D01220F0BD05EB53
:1052800002108089B0F5807F01D00020F0BD102091
:10529000F0BD0000B023002430B5064B00242146A9
:1052A00003EB01121568854200D11460491C0229E4
:1052B000F6D330BDB02300240268C06A93895289B6
:1052C0005343B1FBF3F1001D04C81AB1914203D35B
:1052D000891AF8E700207047006808447047C269DF
:1052E000891E921E8A4201D800207047026B4089B5
:1052F00001FB0020704700002DE9F05F0C4682465C
:1053000001F11A0001F0EAFC78BB207801270026A1
:10531000DFF8609000F03F004FF6FF7B401E00EB8F
:10532000800101EBC00500BF19F80600204401F020
:10533000D5FC80466FB1FF2D17D201F0D7F9074693
:105340003AF815006D1C01F0D1F987420DD147469E
:1053500001E0D84509D1761C0D2EE5D32078400612
:1053600006D52FB13AF8150010B10020BDE8F09F26
:105370000120FBE7447200082DE9F04105680F00A9
:10538000804606D001F0B6FB022809D20120BDE814
:10539000F0816E6916B1E869B04207D8012605E0D0
:1053A000411CF4D0E9698142F1D83E463446E869AF
:1053B000641CA04203D8022E4FF002040AD32146F7
:1053C000404601F097FB38B10128E0D0411CDED007
:1053D000B442ECD10020DAE74FF0FF3621463246E6
:1053E000284601F007FD30B957B122463946284614
:1053F00001F000FD20B101280FD001242046C6E7AE
:10540000D5E906016C61891E884201D8401EA86159
:10541000287940F001002871F0E73446EEE70000FB
:105420002DE9F84F88460168002482462546D8F8C1
:1054300000600F69705D6D1C20281AD32F2813D0CF
:105440005C2811D0FF2C38D2012101F031F95FEA3C
:10545000000932D0B9F1800F12D201466BA0FFF7DC
:10546000E5FE50BB0CE06D1C715D2F29FBD05C2963
:10547000F9D07119C8F80010202805D204250EE0D3
:1054800027F81490641CD5E7002508E007EB4400DA
:1054900030F8020C202801D02E2802D1641E002CE6
:1054A000F4D1002027F814003CB10B2220210AF18E
:1054B000240001F045FC002603E00620BDE8F88F3B
:1054C000761C37F816002028FAD02E28F8D01EB106
:1054D00045F0030500E0641E2CB107EB440030F8F2
:1054E000020C2E28F7D14FF000094FF0080BCDF831
:1054F000009000BF37F8160006F101065FEA0008C9
:1055000024D0B8F1200F04D0B8F12E0F04D1A64258
:1055100002D045F00305EDE70098584501D2A642B8
:1055200019D1BBF10B0F0FD0A64201D045F00305F6
:105530000CD84FEA896126464FF008004FF00B0B5C
:105540004FEA11690090D5E745F003059AF8240069
:10555000E52836D038E0B8F1800F404610D300215E
:1055600001F0A6F85FEA000805D02B4901EB08001E
:1055700010F8800C8046B8F1000F45F0020504D009
:10558000014626A0FFF752FE18B15F2045F0030543
:105590000EE0A8F14100192802D849F0020908E0FC
:1055A000A8F16100192804D8413080B249F00109FE
:1055B0008046009A00995244491C009182F8248048
:1055C00098E705218AF82410BBF1080F03D14FEAB0
:1055D00089604FEA1069C9F38100032803D06FEA9C
:1055E0000901890701D145F00205A90709D409F08D
:1055F0000301012901D145F01005012801D145F031
:1056000008058AF82F50002058E70000222A3A3C6B
:105610003E3F7C7F00000000C47100082B2C3B3D06
:105620005B5D0000401E022812D20A4901EB001106
:105630008889B0F5807F05D008B1401E80B288818E
:1056400010B103E00020FAE7002008600020704756
:1056500002207047B02300242DE9F047D0F80090D5
:105660000021044600F059FA00285CD1471E276348
:10567000FF25A846E169484601F069FB060051D1C3
:10568000216A087850B1CA7AE52802F03F02A27177
:1056900040D0130704D50F2A3CD105E0042641E091
:1056A0000F2A01D0E5B120E094F82F20520633D420
:1056B000420606D591F80D8000F0BF0063690546EB
:1056C0002363A84209D14A7B424506D1D9F810008C
:1056D000FFF712FE08B16D1E00E0FF25EDB21BE0E2
:1056E000084601F0AFFC40451CD094F82F00C007DD
:1056F00010D1D4F820100B2204F12400521E11F80E
:10570000013B10F8015BA3EB050302D0002BF5D0A1
:1057100000E03BB1FF2527630021204600F006F89A
:105720000600A7D03046BDE8F08700002DE9F0471D
:1057300005464769C069894620372C6810B1B7F51E
:10574000001F02D30420BDE8F087A189B7FBF1F266
:1057500001FB127100295FD1A969401C4FF00008BC
:10576000E86119B3A0896289B7FBF0F0521E1042BC
:1057700052D1284601F0BEF9012806461FD9701CF7
:1057800036D0E069B04241D8B9F1000F12D0A96912
:105790002846FFF7F1FD06000FD0012E0FD0701C38
:1057A00026D0204601F0A0FC10BB0AE02089B0EB17
:1057B000571F31D8C5F81C80C4E70720C3E7022073
:1057C000C1E7A289002104F1380001F0B9FA4FF0D5
:1057D000000831462046FFF782FD4FF00109606363
:1057E0000DE000BF204684F8039001F07DFC08B175
:1057F0000120A8E7616B08F10108491C6163608919
:105800004045EFD8616BA1EB08006063314620464C
:10581000AE61FFF764FDE8616F61A089B7FBF0F14D
:1058200000FB117020443830286200208BE72DE9FE
:10583000F0470426D0F80080FF2489460546274615
:1058400048E0404601F083FA060047D1286A017813
:1058500081B1C27AE52902F03F02AA7108D02E294F
:1058600006D022F02003082B06D0B446CC4506D043
:10587000FF2420E0042631E04FF0010CF6E70F2A68
:1058800001D01CBB1EE04A0605D5477B01F0BF01D5
:105890006A690C462A63A1420BD1417BB94208D107
:1058A000D8F810200146104601F06AFA08B1641ECB
:1058B00000E0FF24E4B228460021FFF737FF06008E
:1058C00008D00BE001F0BEFBB84209D04FF0FF302A
:1058D000286305E0E9690029B3D10EB10020E86131
:1058E0003046BDE8F08700002DE9F04F044690F8FF
:1058F0002F008FB010F0A00FD4F8009003D0062036
:105900000FB0BDE8F08FD9F81000002500E06D1C45
:1059100030F815100029FAD10C2204F1240102916B
:1059200008A801F003FA9DF82B00C00719D0402009
:1059300084F82F000126D9F81020029808A93346D0
:1059400001F098F82046FFF787FE10B9761C642E08
:10595000F1D3642E0FD00428D2D19DF82B0084F807
:105960002F009DF82B00800707D50D200C35B5FBC7
:10597000F0F56D1C02E00720C2E701252768002131
:10598000204600F0CAF888B90026E169384601F0DF
:10599000DEF958B9206A0078E5280AD048B1002617
:1059A00020460121FFF7C2FE0028EED0042812D0C5
:1059B00012E0761C2846AE42F2D1451E0B9567D008
:1059C0006169684201EB4011204600F0A6F85FEAE9
:1059D000000803D076E00720804673E0029801F0CB
:1059E00031FB4FF6FF7B0C90E169484601F0AFF9BF
:1059F0005FEA000866D10B990F23D4F82080C9B262
:105A00000391D9F810100C980591002188F80D0029
:105A100008F11A0088F80B3088F80C1001F00EFB22
:105A200003990027DFF8A0A0491E01EB810202EBD9
:105A3000C10601E05D4503D0059830F81650761C8C
:105A40001AF8071001EB0800294601F0F7FA05B92A
:105A50005D467F1C0D2FEDD35D4505D0059830F8D0
:105A6000160008B1039803E0039840F0400003904B
:105A700088F800000120002189F803002046FFF784
:105A800055FE5FEA00081DD10B98401E0B90ABD16C
:105A9000E169484601F05BF95FEA000812D1206A2B
:105AA0002022002101F04CF9206A0B22029901F01A
:105AB0003DF9226A012094F82F1001F018011173AA
:105AC00089F8030040461BE7447200082DE9F041C5
:105AD000016B044646690568481C04D0204600F066
